{
  "contractName": "WROSE",
  "abi": [
    {
      "inputs": [],
      "name": "decimals",
      "outputs": [
        {
          "internalType": "uint8",
          "name": "",
          "type": "uint8"
        }
      ],
      "stateMutability": "view",
      "type": "function",
      "constant": true
    },
    {
      "inputs": [],
      "name": "name",
      "outputs": [
        {
          "internalType": "string",
          "name": "",
          "type": "string"
        }
      ],
      "stateMutability": "view",
      "type": "function",
      "constant": true
    },
    {
      "inputs": [
        {
          "internalType": "uint256",
          "name": "",
          "type": "uint256"
        }
      ],
      "name": "replayNonce",
      "outputs": [
        {
          "internalType": "bool",
          "name": "",
          "type": "bool"
        }
      ],
      "stateMutability": "view",
      "type": "function",
      "constant": true
    },
    {
      "inputs": [],
      "name": "symbol",
      "outputs": [
        {
          "internalType": "string",
          "name": "",
          "type": "string"
        }
      ],
      "stateMutability": "view",
      "type": "function",
      "constant": true
    },
    {
      "inputs": [],
      "name": "balanceOf",
      "outputs": [
        {
          "internalType": "uint256",
          "name": "",
          "type": "uint256"
        }
      ],
      "stateMutability": "view",
      "type": "function",
      "constant": true
    },
    {
      "inputs": [],
      "name": "deposit",
      "outputs": [],
      "stateMutability": "payable",
      "type": "function",
      "payable": true
    },
    {
      "inputs": [
        {
          "internalType": "uint256",
          "name": "value",
          "type": "uint256"
        }
      ],
      "name": "withdraw",
      "outputs": [],
      "stateMutability": "nonpayable",
      "type": "function"
    },
    {
      "inputs": [
        {
          "internalType": "bytes",
          "name": "signature",
          "type": "bytes"
        },
        {
          "internalType": "address",
          "name": "to",
          "type": "address"
        },
        {
          "internalType": "uint256",
          "name": "value",
          "type": "uint256"
        },
        {
          "internalType": "uint256",
          "name": "nonce",
          "type": "uint256"
        },
        {
          "internalType": "uint256",
          "name": "reward",
          "type": "uint256"
        }
      ],
      "name": "metaWithdraw",
      "outputs": [
        {
          "internalType": "bool",
          "name": "",
          "type": "bool"
        }
      ],
      "stateMutability": "nonpayable",
      "type": "function"
    },
    {
      "inputs": [
        {
          "internalType": "address",
          "name": "to",
          "type": "address"
        },
        {
          "internalType": "uint256",
          "name": "value",
          "type": "uint256"
        },
        {
          "internalType": "uint256",
          "name": "nonce",
          "type": "uint256"
        },
        {
          "internalType": "uint256",
          "name": "reward",
          "type": "uint256"
        }
      ],
      "name": "metaWithdrawHash",
      "outputs": [
        {
          "internalType": "bytes32",
          "name": "",
          "type": "bytes32"
        }
      ],
      "stateMutability": "view",
      "type": "function",
      "constant": true
    },
    {
      "inputs": [
        {
          "internalType": "bytes32",
          "name": "_hash",
          "type": "bytes32"
        },
        {
          "internalType": "bytes",
          "name": "_signature",
          "type": "bytes"
        }
      ],
      "name": "getSigner",
      "outputs": [
        {
          "internalType": "address",
          "name": "",
          "type": "address"
        }
      ],
      "stateMutability": "pure",
      "type": "function",
      "constant": true
    }
  ],
  "bytecode": "0x60806040526040518060400160405280601581526020017f5772617070656420536170706869726520526f73650000000000000000000000815250600090816200004a91906200033c565b506040518060400160405280600581526020017f57524f5345000000000000000000000000000000000000000000000000000000815250600190816200009191906200033c565b506012600260006101000a81548160ff021916908360ff160217905550348015620000bb57600080fd5b5062000423565b600081519050919050565b7f4e487b7100000000000000000000000000000000000000000000000000000000600052604160045260246000fd5b7f4e487b7100000000000000000000000000000000000000000000000000000000600052602260045260246000fd5b600060028204905060018216806200014457607f821691505b6020821081036200015a5762000159620000fc565b5b50919050565b60008190508160005260206000209050919050565b60006020601f8301049050919050565b600082821b905092915050565b600060088302620001c47fffffffffffffffffffffffffffffffffffffffffffffffffffffffffffffffff8262000185565b620001d0868362000185565b95508019841693508086168417925050509392505050565b6000819050919050565b6000819050919050565b60006200021d620002176200021184620001e8565b620001f2565b620001e8565b9050919050565b6000819050919050565b6200023983620001fc565b62000251620002488262000224565b84845462000192565b825550505050565b600090565b6200026862000259565b620002758184846200022e565b505050565b5b818110156200029d57620002916000826200025e565b6001810190506200027b565b5050565b601f821115620002ec57620002b68162000160565b620002c18462000175565b81016020851015620002d1578190505b620002e9620002e08562000175565b8301826200027a565b50505b505050565b600082821c905092915050565b60006200031160001984600802620002f1565b1980831691505092915050565b60006200032c8383620002fe565b9150826002028217905092915050565b6200034782620000c2565b67ffffffffffffffff811115620003635762000362620000cd565b5b6200036f82546200012b565b6200037c828285620002a1565b600060209050601f831160018114620003b457600084156200039f578287015190505b620003ab85826200031e565b8655506200041b565b601f198416620003c48662000160565b60005b82811015620003ee57848901518255600182019150602085019450602081019050620003c7565b868310156200040e57848901516200040a601f891682620002fe565b8355505b6001600288020188555050505b505050505050565b6112ab80620004336000396000f3fe6080604052600436106100915760003560e01c806395d89b411161005957806395d89b411461017d5780639a03e187146101a8578063d0e30db0146101e5578063f4f3feca146101ef578063f7b2ec0d1461022c57610091565b806306fdde03146100965780632e1a7d4d146100c1578063313ce567146100ea5780635555cf6614610115578063722713f714610152575b600080fd5b3480156100a257600080fd5b506100ab610269565b6040516100b891906109b3565b60405180910390f35b3480156100cd57600080fd5b506100e860048036038101906100e39190610a1f565b6102f7565b005b3480156100f657600080fd5b506100ff6103e3565b60405161010c9190610a68565b60405180910390f35b34801561012157600080fd5b5061013c60048036038101906101379190610a1f565b6103f6565b6040516101499190610a9e565b60405180910390f35b34801561015e57600080fd5b50610167610416565b6040516101749190610ac8565b60405180910390f35b34801561018957600080fd5b5061019261045d565b60405161019f91906109b3565b60405180910390f35b3480156101b457600080fd5b506101cf60048036038101906101ca9190610b41565b6104eb565b6040516101dc9190610bc1565b60405180910390f35b6101ed610526565b005b3480156101fb57600080fd5b5061021660048036038101906102119190610d11565b61057e565b6040516102239190610a9e565b60405180910390f35b34801561023857600080fd5b50610253600480360381019061024e9190610dd4565b61082a565b6040516102609190610e3f565b60405180910390f35b6000805461027690610e89565b80601f01602080910402602001604051908101604052809291908181526020018280546102a290610e89565b80156102ef5780601f106102c4576101008083540402835291602001916102ef565b820191906000526020600020905b8154815290600101906020018083116102d257829003601f168201915b505050505081565b80600360003373ffffffffffffffffffffffffffffffffffffffff1673ffffffffffffffffffffffffffffffffffffffff16815260200190815260200160002054101561034357600080fd5b80600360003373ffffffffffffffffffffffffffffffffffffffff1673ffffffffffffffffffffffffffffffffffffffff16815260200190815260200160002060008282546103929190610ee9565b925050819055503373ffffffffffffffffffffffffffffffffffffffff166108fc829081150290604051600060405180830381858888f193505050501580156103df573d6000803e3d6000fd5b5050565b600260009054906101000a900460ff1681565b60046020528060005260406000206000915054906101000a900460ff1681565b6000600360003373ffffffffffffffffffffffffffffffffffffffff1673ffffffffffffffffffffffffffffffffffffffff16815260200190815260200160002054905090565b6001805461046a90610e89565b80601f016020809104026020016040519081016040528092919081815260200182805461049690610e89565b80156104e35780601f106104b8576101008083540402835291602001916104e3565b820191906000526020600020905b8154815290600101906020018083116104c657829003601f168201915b505050505081565b60003085858585604051602001610506959493929190610f86565b604051602081830303815290604052805190602001209050949350505050565b34600360003373ffffffffffffffffffffffffffffffffffffffff1673ffffffffffffffffffffffffffffffffffffffff16815260200190815260200160002060008282546105759190610fe5565b92505081905550565b60008061058d868686866104eb565b9050600061059b828961082a565b905083866105a99190610fe5565b600360008373ffffffffffffffffffffffffffffffffffffffff1673ffffffffffffffffffffffffffffffffffffffff16815260200190815260200160002054101561062a576040517f08c379a000000000000000000000000000000000000000000000000000000000815260040161062190611065565b60405180910390fd5b600073ffffffffffffffffffffffffffffffffffffffff168173ffffffffffffffffffffffffffffffffffffffff1603610699576040517f08c379a0000000000000000000000000000000000000000000000000000000008152600401610690906110d1565b60405180910390fd5b600015156004600087815260200190815260200160002060009054906101000a900460ff16151514610700576040517f08c379a00000000000000000000000000000000000000000000000000000000081526004016106f79061113d565b60405180910390fd5b60016004600087815260200190815260200160002060006101000a81548160ff02191690831515021790555083866107389190610fe5565b600360008373ffffffffffffffffffffffffffffffffffffffff1673ffffffffffffffffffffffffffffffffffffffff16815260200190815260200160002060008282546107869190610ee9565b925050819055503373ffffffffffffffffffffffffffffffffffffffff166108fc859081150290604051600060405180830381858888f193505050501580156107d3573d6000803e3d6000fd5b508673ffffffffffffffffffffffffffffffffffffffff166108fc879081150290604051600060405180830381858888f1935050505015801561081a573d6000803e3d6000fd5b5060019250505095945050505050565b6000806000806041855114610845576000935050505061091d565b6020850151925060408501519150606085015160001a9050601b8160ff16101561087957601b81610876919061115d565b90505b601b8160ff16141580156108915750601c8160ff1614155b156108a2576000935050505061091d565b6001866040516020016108b5919061120a565b60405160208183030381529060405280519060200120828585604051600081526020016040526040516108eb9493929190611230565b6020604051602081039080840390855afa15801561090d573d6000803e3d6000fd5b5050506020604051035193505050505b92915050565b600081519050919050565b600082825260208201905092915050565b60005b8381101561095d578082015181840152602081019050610942565b60008484015250505050565b6000601f19601f8301169050919050565b600061098582610923565b61098f818561092e565b935061099f81856020860161093f565b6109a881610969565b840191505092915050565b600060208201905081810360008301526109cd818461097a565b905092915050565b6000604051905090565b600080fd5b600080fd5b6000819050919050565b6109fc816109e9565b8114610a0757600080fd5b50565b600081359050610a19816109f3565b92915050565b600060208284031215610a3557610a346109df565b5b6000610a4384828501610a0a565b91505092915050565b600060ff82169050919050565b610a6281610a4c565b82525050565b6000602082019050610a7d6000830184610a59565b92915050565b60008115159050919050565b610a9881610a83565b82525050565b6000602082019050610ab36000830184610a8f565b92915050565b610ac2816109e9565b82525050565b6000602082019050610add6000830184610ab9565b92915050565b600073ffffffffffffffffffffffffffffffffffffffff82169050919050565b6000610b0e82610ae3565b9050919050565b610b1e81610b03565b8114610b2957600080fd5b50565b600081359050610b3b81610b15565b92915050565b60008060008060808587031215610b5b57610b5a6109df565b5b6000610b6987828801610b2c565b9450506020610b7a87828801610a0a565b9350506040610b8b87828801610a0a565b9250506060610b9c87828801610a0a565b91505092959194509250565b6000819050919050565b610bbb81610ba8565b82525050565b6000602082019050610bd66000830184610bb2565b92915050565b600080fd5b600080fd5b7f4e487b7100000000000000000000000000000000000000000000000000000000600052604160045260246000fd5b610c1e82610969565b810181811067ffffffffffffffff82111715610c3d57610c3c610be6565b5b80604052505050565b6000610c506109d5565b9050610c5c8282610c15565b919050565b600067ffffffffffffffff821115610c7c57610c7b610be6565b5b610c8582610969565b9050602081019050919050565b82818337600083830152505050565b6000610cb4610caf84610c61565b610c46565b905082815260208101848484011115610cd057610ccf610be1565b5b610cdb848285610c92565b509392505050565b600082601f830112610cf857610cf7610bdc565b5b8135610d08848260208601610ca1565b91505092915050565b600080600080600060a08688031215610d2d57610d2c6109df565b5b600086013567ffffffffffffffff811115610d4b57610d4a6109e4565b5b610d5788828901610ce3565b9550506020610d6888828901610b2c565b9450506040610d7988828901610a0a565b9350506060610d8a88828901610a0a565b9250506080610d9b88828901610a0a565b9150509295509295909350565b610db181610ba8565b8114610dbc57600080fd5b50565b600081359050610dce81610da8565b92915050565b60008060408385031215610deb57610dea6109df565b5b6000610df985828601610dbf565b925050602083013567ffffffffffffffff811115610e1a57610e196109e4565b5b610e2685828601610ce3565b9150509250929050565b610e3981610b03565b82525050565b6000602082019050610e546000830184610e30565b92915050565b7f4e487b7100000000000000000000000000000000000000000000000000000000600052602260045260246000fd5b60006002820490506001821680610ea157607f821691505b602082108103610eb457610eb3610e5a565b5b50919050565b7f4e487b7100000000000000000000000000000000000000000000000000000000600052601160045260246000fd5b6000610ef4826109e9565b9150610eff836109e9565b9250828203905081811115610f1757610f16610eba565b5b92915050565b60008160601b9050919050565b6000610f3582610f1d565b9050919050565b6000610f4782610f2a565b9050919050565b610f5f610f5a82610b03565b610f3c565b82525050565b6000819050919050565b610f80610f7b826109e9565b610f65565b82525050565b6000610f928288610f4e565b601482019150610fa28287610f4e565b601482019150610fb28286610f6f565b602082019150610fc28285610f6f565b602082019150610fd28284610f6f565b6020820191508190509695505050505050565b6000610ff0826109e9565b9150610ffb836109e9565b925082820190508082111561101357611012610eba565b5b92915050565b7f496e73756666696369656e742042616c616e6365000000000000000000000000600082015250565b600061104f60148361092e565b915061105a82611019565b602082019050919050565b6000602082019050818103600083015261107e81611042565b9050919050565b7f5369676e65722069732030783000000000000000000000000000000000000000600082015250565b60006110bb600d8361092e565b91506110c682611085565b602082019050919050565b600060208201905081810360008301526110ea816110ae565b9050919050565b7f4e6f6e636520686173206265656e207573656400000000000000000000000000600082015250565b600061112760138361092e565b9150611132826110f1565b602082019050919050565b600060208201905081810360008301526111568161111a565b9050919050565b600061116882610a4c565b915061117383610a4c565b9250828201905060ff81111561118c5761118b610eba565b5b92915050565b600081905092915050565b7f19457468657265756d205369676e6564204d6573736167653a0a333200000000600082015250565b60006111d3601c83611192565b91506111de8261119d565b601c82019050919050565b6000819050919050565b6112046111ff82610ba8565b6111e9565b82525050565b6000611215826111c6565b915061122182846111f3565b60208201915081905092915050565b60006080820190506112456000830187610bb2565b6112526020830186610a59565b61125f6040830185610bb2565b61126c6060830184610bb2565b9594505050505056fea2646970667358221220c2e57b65660725843389b0328da3e5d4afeb54c3899179d464c7396adaabcbc764736f6c63430008130033",
  "immutableReferences": {},
  "source": "// SPDX-License-Identifier: GPL-3.0-or-later\npragma solidity 0.8.19;\n\ncontract WROSE {\n    string public name     = \"Wrapped Sapphire Rose\";\n    string public symbol   = \"WROSE\";\n    uint8  public decimals = 18;\n\n    mapping (address => uint256) private balances;\n    mapping (uint256 => bool) public replayNonce;\n\n    function balanceOf() public view returns (uint256) {\n        return balances[msg.sender];\n    }\n\n    function deposit() public payable {\n        balances[msg.sender] += msg.value;\n    }\n\n    function withdraw(uint256 value) public {\n        require(balances[msg.sender] >= value);\n        balances[msg.sender] -= value;\n        payable(msg.sender).transfer(value);\n    }\n\n    function metaWithdraw(bytes memory signature, address to, uint256 value, uint256 nonce, uint256 reward) public returns (bool) {\n      bytes32 metaHash = metaWithdrawHash(to, value, nonce, reward);\n      address signer = getSigner(metaHash, signature);\n\n      require(balances[signer] >= value + reward, \"Insufficient Balance\");\n      require(signer != address(0), \"Signer is 0x0\");\n      require(replayNonce[nonce] == false, \"Nonce has been used\");\n\n      replayNonce[nonce] = true;\n      balances[signer] -= value + reward;\n\n      payable(msg.sender).transfer(reward);\n      payable(to).transfer(value);\n      return true;\n    }\n\n    function metaWithdrawHash(address to, uint256 value, uint256 nonce, uint256 reward) public view returns(bytes32){\n      return keccak256(abi.encodePacked(address(this), to, value, nonce, reward));\n    }\n\n    function getSigner(bytes32 _hash, bytes memory _signature) public pure returns (address) {\n      bytes32 r;\n      bytes32 s;\n      uint8 v;\n      if (_signature.length != 65) {\n        return address(0);\n      }\n      assembly {\n        r := mload(add(_signature, 32))\n        s := mload(add(_signature, 64))\n        v := byte(0, mload(add(_signature, 96)))\n      }\n      if (v < 27) {\n        v += 27;\n      }\n      if (v != 27 && v != 28) {\n        return address(0);\n      } else {\n        return ecrecover(keccak256(\n          abi.encodePacked(\"\\x19Ethereum Signed Message:\\n32\", _hash)\n        ), v, r, s);\n      }\n    }\n}\n",
  "sourcePath": "/Users/leon/Desktop/contract/contracts/WROSE.sol",
  "compiler": {
    "name": "solc",
    "version": "0.8.19+commit.7dd6d404.Emscripten.clang"
  },
  "schemaVersion": "3.4.10",
  "updatedAt": "2023-05-03T18:49:15.696Z",
  "networkType": "ethereum",
  "devdoc": {
    "kind": "dev",
    "methods": {},
    "version": 1
  },
  "userdoc": {
    "kind": "user",
    "methods": {},
    "version": 1
  }
}