{
  "contractName": "WROSE",
  "abi": [
    {
      "inputs": [
        {
          "internalType": "uint256",
          "name": "",
          "type": "uint256"
        }
      ],
      "name": "replayNonce",
      "outputs": [
        {
          "internalType": "bool",
          "name": "",
          "type": "bool"
        }
      ],
      "stateMutability": "view",
      "type": "function",
      "constant": true
    },
    {
      "inputs": [],
      "name": "balanceOf",
      "outputs": [
        {
          "internalType": "uint256",
          "name": "",
          "type": "uint256"
        }
      ],
      "stateMutability": "view",
      "type": "function",
      "constant": true
    },
    {
      "inputs": [],
      "name": "deposit",
      "outputs": [],
      "stateMutability": "payable",
      "type": "function",
      "payable": true
    },
    {
      "inputs": [
        {
          "internalType": "uint256",
          "name": "value",
          "type": "uint256"
        }
      ],
      "name": "withdraw",
      "outputs": [],
      "stateMutability": "nonpayable",
      "type": "function"
    },
    {
      "inputs": [
        {
          "internalType": "bytes",
          "name": "signature",
          "type": "bytes"
        },
        {
          "internalType": "address",
          "name": "to",
          "type": "address"
        },
        {
          "internalType": "uint256",
          "name": "value",
          "type": "uint256"
        },
        {
          "internalType": "uint256",
          "name": "nonce",
          "type": "uint256"
        },
        {
          "internalType": "uint256",
          "name": "reward",
          "type": "uint256"
        }
      ],
      "name": "metaWithdraw",
      "outputs": [
        {
          "internalType": "bool",
          "name": "",
          "type": "bool"
        }
      ],
      "stateMutability": "nonpayable",
      "type": "function"
    }
  ],
  "bytecode": "0x608060405234801561001057600080fd5b506113e2806100206000396000f3fe60806040526004361061004a5760003560e01c80632e1a7d4d1461004f5780635555cf6614610078578063722713f7146100b5578063d0e30db0146100e0578063f4f3feca146100ea575b600080fd5b34801561005b57600080fd5b5061007660048036038101906100719190610a74565b610127565b005b34801561008457600080fd5b5061009f600480360381019061009a9190610a74565b610211565b6040516100ac9190610abc565b60405180910390f35b3480156100c157600080fd5b506100ca610231565b6040516100d79190610ae6565b60405180910390f35b6100e8610277565b005b3480156100f657600080fd5b50610111600480360381019061010c9190610ca5565b6102ce565b60405161011e9190610abc565b60405180910390f35b806000803373ffffffffffffffffffffffffffffffffffffffff1673ffffffffffffffffffffffffffffffffffffffff16815260200190815260200160002054101561017257600080fd5b806000803373ffffffffffffffffffffffffffffffffffffffff1673ffffffffffffffffffffffffffffffffffffffff16815260200190815260200160002060008282546101c09190610d6b565b925050819055503373ffffffffffffffffffffffffffffffffffffffff166108fc829081150290604051600060405180830381858888f1935050505015801561020d573d6000803e3d6000fd5b5050565b60016020528060005260406000206000915054906101000a900460ff1681565b60008060003373ffffffffffffffffffffffffffffffffffffffff1673ffffffffffffffffffffffffffffffffffffffff16815260200190815260200160002054905090565b346000803373ffffffffffffffffffffffffffffffffffffffff1673ffffffffffffffffffffffffffffffffffffffff16815260200190815260200160002060008282546102c59190610d9f565b92505081905550565b6000806102de8787878787610563565b905082856102ec9190610d9f565b6000808373ffffffffffffffffffffffffffffffffffffffff1673ffffffffffffffffffffffffffffffffffffffff16815260200190815260200160002054101561036c576040517f08c379a000000000000000000000000000000000000000000000000000000000815260040161036390610e30565b60405180910390fd5b600073ffffffffffffffffffffffffffffffffffffffff168173ffffffffffffffffffffffffffffffffffffffff16036103db576040517f08c379a00000000000000000000000000000000000000000000000000000000081526004016103d290610e9c565b60405180910390fd5b6001600085815260200190815260200160002060009054906101000a900460ff161561043c576040517f08c379a000000000000000000000000000000000000000000000000000000000815260040161043390610f08565b60405180910390fd5b600180600086815260200190815260200160002060006101000a81548160ff02191690831515021790555082856104739190610d9f565b6000808373ffffffffffffffffffffffffffffffffffffffff1673ffffffffffffffffffffffffffffffffffffffff16815260200190815260200160002060008282546104c09190610d6b565b925050819055503373ffffffffffffffffffffffffffffffffffffffff166108fc849081150290604051600060405180830381858888f1935050505015801561050d573d6000803e3d6000fd5b508573ffffffffffffffffffffffffffffffffffffffff166108fc869081150290604051600060405180830381858888f19350505050158015610554573d6000803e3d6000fd5b50600191505095945050505050565b6000806040518060400160405280600581526020017f57524f5345000000000000000000000000000000000000000000000000000000815250905060006040518060400160405280600181526020017f310000000000000000000000000000000000000000000000000000000000000081525090506000615afe90506000309050600060405180608001604052806052815260200161131d60529139905060006040518060600160405280603e815260200161136f603e913990506000826040516020016106319190610f99565b60405160208183030381529060405280519060200120876040516020016106589190610f99565b604051602081830303815290604052805190602001208760405160200161067f9190610f99565b6040516020818303038152906040528051906020012087876040516020016106ab959493929190610fd8565b604051602081830303815290604052805190602001209050600081836040516020016106d79190610f99565b604051602081830303815290604052805190602001208e8e8e8e60405160200161070595949392919061102b565b6040516020818303038152906040528051906020012060405160200161072c9291906110eb565b6040516020818303038152906040528051906020012090506107578e8261076a90919063ffffffff16565b9850505050505050505095945050505050565b60008060006107798585610791565b91509150610786816107e2565b819250505092915050565b60008060418351036107d25760008060006020860151925060408601519150606086015160001a90506107c687828585610948565b945094505050506107db565b60006002915091505b9250929050565b600060048111156107f6576107f5611122565b5b81600481111561080957610808611122565b5b0315610945576001600481111561082357610822611122565b5b81600481111561083657610835611122565b5b03610876576040517f08c379a000000000000000000000000000000000000000000000000000000000815260040161086d9061119d565b60405180910390fd5b6002600481111561088a57610889611122565b5b81600481111561089d5761089c611122565b5b036108dd576040517f08c379a00000000000000000000000000000000000000000000000000000000081526004016108d490611209565b60405180910390fd5b600360048111156108f1576108f0611122565b5b81600481111561090457610903611122565b5b03610944576040517f08c379a000000000000000000000000000000000000000000000000000000000815260040161093b9061129b565b60405180910390fd5b5b50565b6000807f7fffffffffffffffffffffffffffffff5d576e7357a4501ddfe92f46681b20a08360001c1115610983576000600391509150610a21565b6000600187878787604051600081526020016040526040516109a894939291906112d7565b6020604051602081039080840390855afa1580156109ca573d6000803e3d6000fd5b505050602060405103519050600073ffffffffffffffffffffffffffffffffffffffff168173ffffffffffffffffffffffffffffffffffffffff1603610a1857600060019250925050610a21565b80600092509250505b94509492505050565b6000604051905090565b600080fd5b600080fd5b6000819050919050565b610a5181610a3e565b8114610a5c57600080fd5b50565b600081359050610a6e81610a48565b92915050565b600060208284031215610a8a57610a89610a34565b5b6000610a9884828501610a5f565b91505092915050565b60008115159050919050565b610ab681610aa1565b82525050565b6000602082019050610ad16000830184610aad565b92915050565b610ae081610a3e565b82525050565b6000602082019050610afb6000830184610ad7565b92915050565b600080fd5b600080fd5b6000601f19601f8301169050919050565b7f4e487b7100000000000000000000000000000000000000000000000000000000600052604160045260246000fd5b610b5482610b0b565b810181811067ffffffffffffffff82111715610b7357610b72610b1c565b5b80604052505050565b6000610b86610a2a565b9050610b928282610b4b565b919050565b600067ffffffffffffffff821115610bb257610bb1610b1c565b5b610bbb82610b0b565b9050602081019050919050565b82818337600083830152505050565b6000610bea610be584610b97565b610b7c565b905082815260208101848484011115610c0657610c05610b06565b5b610c11848285610bc8565b509392505050565b600082601f830112610c2e57610c2d610b01565b5b8135610c3e848260208601610bd7565b91505092915050565b600073ffffffffffffffffffffffffffffffffffffffff82169050919050565b6000610c7282610c47565b9050919050565b610c8281610c67565b8114610c8d57600080fd5b50565b600081359050610c9f81610c79565b92915050565b600080600080600060a08688031215610cc157610cc0610a34565b5b600086013567ffffffffffffffff811115610cdf57610cde610a39565b5b610ceb88828901610c19565b9550506020610cfc88828901610c90565b9450506040610d0d88828901610a5f565b9350506060610d1e88828901610a5f565b9250506080610d2f88828901610a5f565b9150509295509295909350565b7f4e487b7100000000000000000000000000000000000000000000000000000000600052601160045260246000fd5b6000610d7682610a3e565b9150610d8183610a3e565b9250828203905081811115610d9957610d98610d3c565b5b92915050565b6000610daa82610a3e565b9150610db583610a3e565b9250828201905080821115610dcd57610dcc610d3c565b5b92915050565b600082825260208201905092915050565b7f496e73756666696369656e742042616c616e6365000000000000000000000000600082015250565b6000610e1a601483610dd3565b9150610e2582610de4565b602082019050919050565b60006020820190508181036000830152610e4981610e0d565b9050919050565b7f49727265636f76657261626c65207369676e6174757265000000000000000000600082015250565b6000610e86601783610dd3565b9150610e9182610e50565b602082019050919050565b60006020820190508181036000830152610eb581610e79565b9050919050565b7f4e6f6e636520686173206265656e207573656400000000000000000000000000600082015250565b6000610ef2601383610dd3565b9150610efd82610ebc565b602082019050919050565b60006020820190508181036000830152610f2181610ee5565b9050919050565b600081519050919050565b600081905092915050565b60005b83811015610f5c578082015181840152602081019050610f41565b60008484015250505050565b6000610f7382610f28565b610f7d8185610f33565b9350610f8d818560208601610f3e565b80840191505092915050565b6000610fa58284610f68565b915081905092915050565b6000819050919050565b610fc381610fb0565b82525050565b610fd281610c67565b82525050565b600060a082019050610fed6000830188610fba565b610ffa6020830187610fba565b6110076040830186610fba565b6110146060830185610ad7565b6110216080830184610fc9565b9695505050505050565b600060a0820190506110406000830188610fba565b61104d6020830187610fc9565b61105a6040830186610ad7565b6110676060830185610ad7565b6110746080830184610ad7565b9695505050505050565b7f1901000000000000000000000000000000000000000000000000000000000000600082015250565b60006110b4600283610f33565b91506110bf8261107e565b600282019050919050565b6000819050919050565b6110e56110e082610fb0565b6110ca565b82525050565b60006110f6826110a7565b915061110282856110d4565b60208201915061111282846110d4565b6020820191508190509392505050565b7f4e487b7100000000000000000000000000000000000000000000000000000000600052602160045260246000fd5b7f45434453413a20696e76616c6964207369676e61747572650000000000000000600082015250565b6000611187601883610dd3565b915061119282611151565b602082019050919050565b600060208201905081810360008301526111b68161117a565b9050919050565b7f45434453413a20696e76616c6964207369676e6174757265206c656e67746800600082015250565b60006111f3601f83610dd3565b91506111fe826111bd565b602082019050919050565b60006020820190508181036000830152611222816111e6565b9050919050565b7f45434453413a20696e76616c6964207369676e6174757265202773272076616c60008201527f7565000000000000000000000000000000000000000000000000000000000000602082015250565b6000611285602283610dd3565b915061129082611229565b604082019050919050565b600060208201905081810360008301526112b481611278565b9050919050565b600060ff82169050919050565b6112d1816112bb565b82525050565b60006080820190506112ec6000830187610fba565b6112f960208301866112c8565b6113066040830185610fba565b6113136060830184610fba565b9594505050505056fe454950373132446f6d61696e28737472696e67206e616d652c737472696e672076657273696f6e2c75696e7432353620636861696e49642c6164647265737320766572696679696e67436f6e7472616374294d657373616765286164647265737320746f2c75696e743235362076616c75652c75696e74323536206e6f6e63652c75696e743235362072657761726429a2646970667358221220fdea0c2fdfdf7d4f707d1f28996c9d42521a9f56fbe918ab76734fe81246030c64736f6c63430008130033",
  "immutableReferences": {},
  "source": "// SPDX-License-Identifier: GPL-3.0-or-later\npragma solidity 0.8.19;\n\n/*\n * This WROSE allows meta-withdrawals to accounts that do not have gas.\n * Token transfers are not private because Sapphire compute node operators can see which accounts' storage slots are active.\n * Do NOT use this code for anything that requires privacy if you do not trust Sapphire compute node operators.\n */\n\nimport \"@openzeppelin/contracts/utils/cryptography/ECDSA.sol\";\n\ncontract WROSE {\n    using ECDSA for bytes32;\n\n    mapping(address => uint256) private balances;\n    mapping(uint256 => bool) public replayNonce;\n\n    function balanceOf() public view returns (uint256) {\n        return balances[msg.sender];\n    }\n\n    function deposit() public payable {\n        balances[msg.sender] += msg.value;\n    }\n\n    function withdraw(uint256 value) public {\n        require(balances[msg.sender] >= value);\n        balances[msg.sender] -= value;\n        payable(msg.sender).transfer(value);\n    }\n\n    function metaWithdraw(\n        bytes memory signature,\n        address to,\n        uint256 value,\n        uint256 nonce,\n        uint256 reward\n    ) public returns (bool) {\n        address signer = getSigner(signature, to, value, nonce, reward); \n\n        require(balances[signer] >= value + reward, \"Insufficient Balance\");\n        require(signer != address(0), \"Irrecoverable signature\");\n        require(!replayNonce[nonce], \"Nonce has been used\");\n\n        replayNonce[nonce] = true;\n        balances[signer] -= value + reward;\n\n        payable(msg.sender).transfer(reward);\n        payable(to).transfer(value);\n        return true;\n    }\n\n    function getSigner(bytes memory _signature, address _to,uint256 _value,uint256 _nonce,uint256 _reward)\n        private\n        view\n        returns (address)\n    {\n        // EIP721 domain type\n        string memory name = \"WROSE\";\n        string memory version = \"1\";\n        uint256 chainId = 23294;\n        address verifyingContract = address(this);\n\n        // stringified types\n        string memory EIP712_DOMAIN_TYPE = \"EIP712Domain(string name,string version,uint256 chainId,address verifyingContract)\";\n        string memory MESSAGE_TYPE = \"Message(address to,uint256 value,uint256 nonce,uint256 reward)\";\n\n        // hash to prevent signature collision\n        bytes32 DOMAIN_SEPARATOR = keccak256(\n            abi.encode(\n                keccak256(abi.encodePacked(EIP712_DOMAIN_TYPE)),\n                keccak256(abi.encodePacked(name)),\n                keccak256(abi.encodePacked(version)),\n                chainId,\n                verifyingContract\n            )\n        );\n\n        // hash typed data\n        bytes32 hash = keccak256(\n            abi.encodePacked(\n                \"\\x19\\x01\", // backslash is needed to escape the character\n                DOMAIN_SEPARATOR,\n                keccak256(\n                    abi.encode(\n                        keccak256(abi.encodePacked(MESSAGE_TYPE)),\n                        _to,_value,_nonce,_reward\n                    )\n                )\n            )\n        );\n\n        return hash.recover(_signature);\n    }\n}\n",
  "sourcePath": "/Users/leon/Desktop/contract/contracts/WROSE.sol",
  "compiler": {
    "name": "solc",
    "version": "0.8.19+commit.7dd6d404.Emscripten.clang"
  },
  "schemaVersion": "3.4.10",
  "updatedAt": "2023-06-13T00:51:33.482Z",
  "networkType": "ethereum",
  "devdoc": {
    "kind": "dev",
    "methods": {},
    "version": 1
  },
  "userdoc": {
    "kind": "user",
    "methods": {},
    "version": 1
  }
}