{
  "contractName": "WROSE",
  "abi": [
    {
      "inputs": [
        {
          "internalType": "uint256",
          "name": "",
          "type": "uint256"
        }
      ],
      "name": "replayNonce",
      "outputs": [
        {
          "internalType": "bool",
          "name": "",
          "type": "bool"
        }
      ],
      "stateMutability": "view",
      "type": "function",
      "constant": true
    },
    {
      "inputs": [],
      "name": "balanceOf",
      "outputs": [
        {
          "internalType": "uint256",
          "name": "",
          "type": "uint256"
        }
      ],
      "stateMutability": "view",
      "type": "function",
      "constant": true
    },
    {
      "inputs": [],
      "name": "deposit",
      "outputs": [],
      "stateMutability": "payable",
      "type": "function",
      "payable": true
    },
    {
      "inputs": [
        {
          "internalType": "uint256",
          "name": "value",
          "type": "uint256"
        }
      ],
      "name": "withdraw",
      "outputs": [],
      "stateMutability": "nonpayable",
      "type": "function"
    },
    {
      "inputs": [
        {
          "internalType": "bytes",
          "name": "signature",
          "type": "bytes"
        },
        {
          "internalType": "address",
          "name": "to",
          "type": "address"
        },
        {
          "internalType": "uint256",
          "name": "value",
          "type": "uint256"
        },
        {
          "internalType": "uint256",
          "name": "nonce",
          "type": "uint256"
        },
        {
          "internalType": "uint256",
          "name": "reward",
          "type": "uint256"
        }
      ],
      "name": "metaWithdraw",
      "outputs": [
        {
          "internalType": "bool",
          "name": "",
          "type": "bool"
        }
      ],
      "stateMutability": "nonpayable",
      "type": "function"
    },
    {
      "inputs": [
        {
          "internalType": "address",
          "name": "to",
          "type": "address"
        },
        {
          "internalType": "uint256",
          "name": "value",
          "type": "uint256"
        },
        {
          "internalType": "uint256",
          "name": "nonce",
          "type": "uint256"
        },
        {
          "internalType": "uint256",
          "name": "reward",
          "type": "uint256"
        }
      ],
      "name": "metaWithdrawHash",
      "outputs": [
        {
          "internalType": "bytes32",
          "name": "",
          "type": "bytes32"
        }
      ],
      "stateMutability": "view",
      "type": "function",
      "constant": true
    }
  ],
  "bytecode": "0x608060405234801561001057600080fd5b50611224806100206000396000f3fe6080604052600436106100555760003560e01c80632e1a7d4d1461005a5780635555cf6614610083578063722713f7146100c05780639a03e187146100eb578063d0e30db014610128578063f4f3feca14610132575b600080fd5b34801561006657600080fd5b50610081600480360381019061007c919061093f565b61016f565b005b34801561008f57600080fd5b506100aa60048036038101906100a5919061093f565b610259565b6040516100b79190610987565b60405180910390f35b3480156100cc57600080fd5b506100d5610279565b6040516100e291906109b1565b60405180910390f35b3480156100f757600080fd5b50610112600480360381019061010d9190610a2a565b6102bf565b60405161011f9190610aaa565b60405180910390f35b6101306102fa565b005b34801561013e57600080fd5b5061015960048036038101906101549190610c0b565b610351565b6040516101669190610987565b60405180910390f35b806000803373ffffffffffffffffffffffffffffffffffffffff1673ffffffffffffffffffffffffffffffffffffffff1681526020019081526020016000205410156101ba57600080fd5b806000803373ffffffffffffffffffffffffffffffffffffffff1673ffffffffffffffffffffffffffffffffffffffff16815260200190815260200160002060008282546102089190610cd1565b925050819055503373ffffffffffffffffffffffffffffffffffffffff166108fc829081150290604051600060405180830381858888f19350505050158015610255573d6000803e3d6000fd5b5050565b60016020528060005260406000206000915054906101000a900460ff1681565b60008060003373ffffffffffffffffffffffffffffffffffffffff1673ffffffffffffffffffffffffffffffffffffffff16815260200190815260200160002054905090565b600030858585856040516020016102da959493929190610d6e565b604051602081830303815290604052805190602001209050949350505050565b346000803373ffffffffffffffffffffffffffffffffffffffff1673ffffffffffffffffffffffffffffffffffffffff16815260200190815260200160002060008282546103489190610dcd565b92505081905550565b600080610360868686866102bf565b9050600061037f8861037184610605565b61063590919063ffffffff16565b9050838661038d9190610dcd565b6000808373ffffffffffffffffffffffffffffffffffffffff1673ffffffffffffffffffffffffffffffffffffffff16815260200190815260200160002054101561040d576040517f08c379a000000000000000000000000000000000000000000000000000000000815260040161040490610e5e565b60405180910390fd5b600073ffffffffffffffffffffffffffffffffffffffff168173ffffffffffffffffffffffffffffffffffffffff160361047c576040517f08c379a000000000000000000000000000000000000000000000000000000000815260040161047390610eca565b60405180910390fd5b6001600086815260200190815260200160002060009054906101000a900460ff16156104dd576040517f08c379a00000000000000000000000000000000000000000000000000000000081526004016104d490610f36565b60405180910390fd5b600180600087815260200190815260200160002060006101000a81548160ff02191690831515021790555083866105149190610dcd565b6000808373ffffffffffffffffffffffffffffffffffffffff1673ffffffffffffffffffffffffffffffffffffffff16815260200190815260200160002060008282546105619190610cd1565b925050819055503373ffffffffffffffffffffffffffffffffffffffff166108fc859081150290604051600060405180830381858888f193505050501580156105ae573d6000803e3d6000fd5b508673ffffffffffffffffffffffffffffffffffffffff166108fc879081150290604051600060405180830381858888f193505050501580156105f5573d6000803e3d6000fd5b5060019250505095945050505050565b6000816040516020016106189190610fce565b604051602081830303815290604052805190602001209050919050565b6000806000610644858561065c565b91509150610651816106ad565b819250505092915050565b600080604183510361069d5760008060006020860151925060408601519150606086015160001a905061069187828585610813565b945094505050506106a6565b60006002915091505b9250929050565b600060048111156106c1576106c0610ff4565b5b8160048111156106d4576106d3610ff4565b5b031561081057600160048111156106ee576106ed610ff4565b5b81600481111561070157610700610ff4565b5b03610741576040517f08c379a00000000000000000000000000000000000000000000000000000000081526004016107389061106f565b60405180910390fd5b6002600481111561075557610754610ff4565b5b81600481111561076857610767610ff4565b5b036107a8576040517f08c379a000000000000000000000000000000000000000000000000000000000815260040161079f906110db565b60405180910390fd5b600360048111156107bc576107bb610ff4565b5b8160048111156107cf576107ce610ff4565b5b0361080f576040517f08c379a00000000000000000000000000000000000000000000000000000000081526004016108069061116d565b60405180910390fd5b5b50565b6000807f7fffffffffffffffffffffffffffffff5d576e7357a4501ddfe92f46681b20a08360001c111561084e5760006003915091506108ec565b60006001878787876040516000815260200160405260405161087394939291906111a9565b6020604051602081039080840390855afa158015610895573d6000803e3d6000fd5b505050602060405103519050600073ffffffffffffffffffffffffffffffffffffffff168173ffffffffffffffffffffffffffffffffffffffff16036108e3576000600192509250506108ec565b80600092509250505b94509492505050565b6000604051905090565b600080fd5b600080fd5b6000819050919050565b61091c81610909565b811461092757600080fd5b50565b60008135905061093981610913565b92915050565b600060208284031215610955576109546108ff565b5b60006109638482850161092a565b91505092915050565b60008115159050919050565b6109818161096c565b82525050565b600060208201905061099c6000830184610978565b92915050565b6109ab81610909565b82525050565b60006020820190506109c660008301846109a2565b92915050565b600073ffffffffffffffffffffffffffffffffffffffff82169050919050565b60006109f7826109cc565b9050919050565b610a07816109ec565b8114610a1257600080fd5b50565b600081359050610a24816109fe565b92915050565b60008060008060808587031215610a4457610a436108ff565b5b6000610a5287828801610a15565b9450506020610a638782880161092a565b9350506040610a748782880161092a565b9250506060610a858782880161092a565b91505092959194509250565b6000819050919050565b610aa481610a91565b82525050565b6000602082019050610abf6000830184610a9b565b92915050565b600080fd5b600080fd5b6000601f19601f8301169050919050565b7f4e487b7100000000000000000000000000000000000000000000000000000000600052604160045260246000fd5b610b1882610acf565b810181811067ffffffffffffffff82111715610b3757610b36610ae0565b5b80604052505050565b6000610b4a6108f5565b9050610b568282610b0f565b919050565b600067ffffffffffffffff821115610b7657610b75610ae0565b5b610b7f82610acf565b9050602081019050919050565b82818337600083830152505050565b6000610bae610ba984610b5b565b610b40565b905082815260208101848484011115610bca57610bc9610aca565b5b610bd5848285610b8c565b509392505050565b600082601f830112610bf257610bf1610ac5565b5b8135610c02848260208601610b9b565b91505092915050565b600080600080600060a08688031215610c2757610c266108ff565b5b600086013567ffffffffffffffff811115610c4557610c44610904565b5b610c5188828901610bdd565b9550506020610c6288828901610a15565b9450506040610c738882890161092a565b9350506060610c848882890161092a565b9250506080610c958882890161092a565b9150509295509295909350565b7f4e487b7100000000000000000000000000000000000000000000000000000000600052601160045260246000fd5b6000610cdc82610909565b9150610ce783610909565b9250828203905081811115610cff57610cfe610ca2565b5b92915050565b60008160601b9050919050565b6000610d1d82610d05565b9050919050565b6000610d2f82610d12565b9050919050565b610d47610d42826109ec565b610d24565b82525050565b6000819050919050565b610d68610d6382610909565b610d4d565b82525050565b6000610d7a8288610d36565b601482019150610d8a8287610d36565b601482019150610d9a8286610d57565b602082019150610daa8285610d57565b602082019150610dba8284610d57565b6020820191508190509695505050505050565b6000610dd882610909565b9150610de383610909565b9250828201905080821115610dfb57610dfa610ca2565b5b92915050565b600082825260208201905092915050565b7f496e73756666696369656e742042616c616e6365000000000000000000000000600082015250565b6000610e48601483610e01565b9150610e5382610e12565b602082019050919050565b60006020820190508181036000830152610e7781610e3b565b9050919050565b7f49727265636f76657261626c65207369676e6174757265000000000000000000600082015250565b6000610eb4601783610e01565b9150610ebf82610e7e565b602082019050919050565b60006020820190508181036000830152610ee381610ea7565b9050919050565b7f4e6f6e636520686173206265656e207573656400000000000000000000000000600082015250565b6000610f20601383610e01565b9150610f2b82610eea565b602082019050919050565b60006020820190508181036000830152610f4f81610f13565b9050919050565b600081905092915050565b7f19457468657265756d205369676e6564204d6573736167653a0a333200000000600082015250565b6000610f97601c83610f56565b9150610fa282610f61565b601c82019050919050565b6000819050919050565b610fc8610fc382610a91565b610fad565b82525050565b6000610fd982610f8a565b9150610fe58284610fb7565b60208201915081905092915050565b7f4e487b7100000000000000000000000000000000000000000000000000000000600052602160045260246000fd5b7f45434453413a20696e76616c6964207369676e61747572650000000000000000600082015250565b6000611059601883610e01565b915061106482611023565b602082019050919050565b600060208201905081810360008301526110888161104c565b9050919050565b7f45434453413a20696e76616c6964207369676e6174757265206c656e67746800600082015250565b60006110c5601f83610e01565b91506110d08261108f565b602082019050919050565b600060208201905081810360008301526110f4816110b8565b9050919050565b7f45434453413a20696e76616c6964207369676e6174757265202773272076616c60008201527f7565000000000000000000000000000000000000000000000000000000000000602082015250565b6000611157602283610e01565b9150611162826110fb565b604082019050919050565b600060208201905081810360008301526111868161114a565b9050919050565b600060ff82169050919050565b6111a38161118d565b82525050565b60006080820190506111be6000830187610a9b565b6111cb602083018661119a565b6111d86040830185610a9b565b6111e56060830184610a9b565b9594505050505056fea26469706673582212207850efdf7e26c83766b4364ede12baa29b1480a7a8c3e288556e4a7c779387b364736f6c63430008130033",
  "immutableReferences": {},
  "source": "// SPDX-License-Identifier: GPL-3.0-or-later\npragma solidity 0.8.19;\n\n/*\n * This WROSE allows meta-withdrawals to accounts that do not have gas.\n * Token transfers are not private because Sapphire compute node operators can see which accounts' storage slots are active.\n * Do NOT use this code for anything that requires privacy if you do not trust Sapphire compute node operators.\n */\n\nimport \"@openzeppelin/contracts/utils/cryptography/ECDSA.sol\";\n\ncontract WROSE {\n    using ECDSA for bytes32;\n\n    mapping(address => uint256) private balances;\n    mapping(uint256 => bool) public replayNonce;\n\n    function balanceOf() public view returns (uint256) {\n        return balances[msg.sender];\n    }\n\n    function deposit() public payable {\n        balances[msg.sender] += msg.value;\n    }\n\n    function withdraw(uint256 value) public {\n        require(balances[msg.sender] >= value);\n        balances[msg.sender] -= value;\n        payable(msg.sender).transfer(value);\n    }\n\n    function metaWithdraw(\n        bytes memory signature,\n        address to,\n        uint256 value,\n        uint256 nonce,\n        uint256 reward\n    ) public returns (bool) {\n        bytes32 metaHash = metaWithdrawHash(to, value, nonce, reward);\n        address signer = metaHash.toEthSignedMessageHash().recover(signature);\n\n        require(balances[signer] >= value + reward, \"Insufficient Balance\");\n        require(signer != address(0), \"Irrecoverable signature\");\n        require(!replayNonce[nonce], \"Nonce has been used\");\n\n        replayNonce[nonce] = true;\n        balances[signer] -= value + reward;\n\n        payable(msg.sender).transfer(reward);\n        payable(to).transfer(value);\n        return true;\n    }\n\n    function metaWithdrawHash(\n        address to,\n        uint256 value,\n        uint256 nonce,\n        uint256 reward\n    ) public view returns (bytes32) {\n        return\n            keccak256(\n                abi.encodePacked(address(this), to, value, nonce, reward)\n            );\n    }\n}\n",
  "sourcePath": "/Users/leon/Desktop/contract/contracts/WROSE.sol",
  "compiler": {
    "name": "solc",
    "version": "0.8.19+commit.7dd6d404.Emscripten.clang"
  },
  "schemaVersion": "3.4.10",
  "updatedAt": "2023-05-06T02:12:57.745Z",
  "networkType": "ethereum",
  "devdoc": {
    "kind": "dev",
    "methods": {},
    "version": 1
  },
  "userdoc": {
    "kind": "user",
    "methods": {},
    "version": 1
  }
}